{
  "contractName": "Delegate",
  "abi": [
    {
      "inputs": [
        {
          "name": "_registry",
          "type": "address"
        },
        {
          "name": "_key",
          "type": "bytes32"
        }
      ],
      "payable": false,
      "stateMutability": "nonpayable",
      "type": "constructor"
    },
    {
      "payable": true,
      "stateMutability": "payable",
      "type": "fallback"
    },
    {
      "constant": true,
      "inputs": [],
      "name": "getDelegateRegistry",
      "outputs": [
        {
          "name": "impl",
          "type": "address"
        }
      ],
      "payable": false,
      "stateMutability": "view",
      "type": "function"
    },
    {
      "constant": true,
      "inputs": [],
      "name": "getDelegateKey",
      "outputs": [
        {
          "name": "key",
          "type": "bytes32"
        }
      ],
      "payable": false,
      "stateMutability": "view",
      "type": "function"
    },
    {
      "constant": true,
      "inputs": [],
      "name": "implementation",
      "outputs": [
        {
          "name": "",
          "type": "address"
        }
      ],
      "payable": false,
      "stateMutability": "view",
      "type": "function"
    }
  ],
  "bytecode": "0x608060405234801561001057600080fd5b506040516040806109ea833981018060405281019080805190602001909291908051906020019092919050505060008073ffffffffffffffffffffffffffffffffffffffff168373ffffffffffffffffffffffffffffffffffffffff16141515156100e3576040517f08c379a00000000000000000000000000000000000000000000000000000000081526004018080602001828103825260208152602001807f726567697374727920616464726573732063616e6e6f7420626520626c616e6b81525060200191505060405180910390fd5b600060010260001916826000191614151515610167576040517f08c379a00000000000000000000000000000000000000000000000000000000081526004018080602001828103825260148152602001807f5f6b65792063616e6e6f7420626520626c616e6b00000000000000000000000081525060200191505060405180910390fd5b61017f836103e9640100000000026401000000009004565b61019782610450640100000000026401000000009004565b6101ae610491640100000000026401000000009004565b9050600073ffffffffffffffffffffffffffffffffffffffff168173ffffffffffffffffffffffffffffffffffffffff1614151515610255576040517f08c379a00000000000000000000000000000000000000000000000000000000081526004018080602001828103825260158152602001807f5f696d706c206d75737420626520646566696e6564000000000000000000000081525060200191505060405180910390fd5b8073ffffffffffffffffffffffffffffffffffffffff1660405180807f696e697469616c697a6554617267657428616464726573732c6279746573333281526020017f2900000000000000000000000000000000000000000000000000000000000000815250602101905060405180910390207c0100000000000000000000000000000000000000000000000000000000900484846040518363ffffffff167c0100000000000000000000000000000000000000000000000000000000028152600401808373ffffffffffffffffffffffffffffffffffffffff1673ffffffffffffffffffffffffffffffffffffffff168152602001826000191660001916815260200192505050600060405180830381865af49250505015156103e1576040517f08c379a00000000000000000000000000000000000000000000000000000000081526004018080602001828103825260128152602001807f636f6e7374727563746f72206661696c6564000000000000000000000000000081525060200191505060405180910390fd5b505050610627565b600060405180807f6f72672e6f70656e636f7665726167652e64656c65676174652e72656769737481526020017f72790000000000000000000000000000000000000000000000000000000000008152506022019050604051809103902090508181555050565b600060405180807f6f72672e6f70656e636f7665726167652e64656c65676174652e6b6579000000815250601d019050604051809103902090508181555050565b6000806104ab61057b640100000000026401000000009004565b90508073ffffffffffffffffffffffffffffffffffffffff1663f39ec1f76104e06105e4640100000000026401000000009004565b6040518263ffffffff167c0100000000000000000000000000000000000000000000000000000000028152600401808260001916600019168152602001915050602060405180830381600087803b15801561053a57600080fd5b505af115801561054e573d6000803e3d6000fd5b505050506040513d602081101561056457600080fd5b810190808051906020019092919050505091505090565b60008060405180807f6f72672e6f70656e636f7665726167652e64656c65676174652e72656769737481526020017f7279000000000000000000000000000000000000000000000000000000000000815250602201905060405180910390209050805491505090565b60008060405180807f6f72672e6f70656e636f7665726167652e64656c65676174652e6b6579000000815250601d01905060405180910390209050805491505090565b6103b4806106366000396000f300608060405260043610610057576000357c0100000000000000000000000000000000000000000000000000000000900463ffffffff1680635c60da1b1461012f57806366c6bcd414610186578063995fe720146101b9575b6000610061610210565b9050600073ffffffffffffffffffffffffffffffffffffffff168173ffffffffffffffffffffffffffffffffffffffff1614151515610108576040517f08c379a00000000000000000000000000000000000000000000000000000000081526004018080602001828103825260158152602001807f5f696d706c2063616e6e6f7420626520626c616e6b000000000000000000000081525060200191505060405180910390fd5b60405136600082376000803683855af43d806000843e816000811461012b578184f35b8184fd5b34801561013b57600080fd5b50610144610210565b604051808273ffffffffffffffffffffffffffffffffffffffff1673ffffffffffffffffffffffffffffffffffffffff16815260200191505060405180910390f35b34801561019257600080fd5b5061019b6102dc565b60405180826000191660001916815260200191505060405180910390f35b3480156101c557600080fd5b506101ce61031f565b604051808273ffffffffffffffffffffffffffffffffffffffff1673ffffffffffffffffffffffffffffffffffffffff16815260200191505060405180910390f35b60008061021b61031f565b90508073ffffffffffffffffffffffffffffffffffffffff1663f39ec1f76102416102dc565b6040518263ffffffff167c0100000000000000000000000000000000000000000000000000000000028152600401808260001916600019168152602001915050602060405180830381600087803b15801561029b57600080fd5b505af11580156102af573d6000803e3d6000fd5b505050506040513d60208110156102c557600080fd5b810190808051906020019092919050505091505090565b60008060405180807f6f72672e6f70656e636f7665726167652e64656c65676174652e6b6579000000815250601d01905060405180910390209050805491505090565b60008060405180807f6f72672e6f70656e636f7665726167652e64656c65676174652e72656769737481526020017f72790000000000000000000000000000000000000000000000000000000000008152506022019050604051809103902090508054915050905600a165627a7a72305820ce329165783007163dedc571ecccc08d5efc1020ba90aba4b0e453016bbacae10029",
  "source": "pragma solidity ^0.4.23;\n\nimport \"./Registry.sol\";\n\ncontract Delegate {\n  bytes32 private constant delegateRegistryPosition = keccak256(\"org.opencoverage.delegate.registry\");\n  bytes32 private constant delegateKeyPosition = keccak256(\"org.opencoverage.delegate.key\");\n\n  constructor (address _registry, bytes32 _key) public {\n    require(_registry != address(0), 'registry address cannot be blank');\n    require(_key != bytes32(0), '_key cannot be blank');\n    _setDelegateRegistry(_registry);\n    _setDelegateKey(_key);\n    address _impl = implementation();\n    require(_impl != address(0), '_impl must be defined');\n    require(\n      _impl.delegatecall(bytes4(keccak256('initializeTarget(address,bytes32)')), _registry, _key),\n      'constructor failed'\n    );\n  }\n\n  function getDelegateRegistry() public view returns (address impl) {\n    bytes32 position = delegateRegistryPosition;\n    assembly {\n      impl := sload(position)\n    }\n  }\n\n  function getDelegateKey() public view returns (bytes32 key) {\n    bytes32 position = delegateKeyPosition;\n    assembly {\n      key := sload(position)\n    }\n  }\n\n  function _setDelegateRegistry(address registry) internal {\n    bytes32 position = delegateRegistryPosition;\n    assembly {\n      sstore(position, registry)\n    }\n  }\n\n  function _setDelegateKey(bytes32 key) internal {\n    bytes32 position = delegateKeyPosition;\n    assembly {\n      sstore(position, key)\n    }\n  }\n\n  /**\n  * @dev Tells the address of the implementation where every call will be delegated.\n  * @return address of the implementation to which it will be delegated\n  */\n  function implementation() public view returns (address) {\n    Registry registry = Registry(getDelegateRegistry());\n    return registry.lookup(getDelegateKey());\n  }\n\n  /**\n  * @dev Fallback function allowing to perform a delegatecall to the given implementation.\n  * This function will return whatever the implementation call returns\n  */\n  function () payable public {\n    address _impl = implementation();\n    require(_impl != address(0), '_impl cannot be blank');\n\n    assembly {\n      let ptr := mload(0x40)\n      calldatacopy(ptr, 0, calldatasize)\n      let result := delegatecall(gas, _impl, ptr, calldatasize, 0, 0)\n      let size := returndatasize\n      returndatacopy(ptr, 0, size)\n\n      switch result\n      case 0 { revert(ptr, size) }\n      default { return(ptr, size) }\n    }\n  }\n}\n",
  "sourcePath": "/Users/bvenkatachalam/Documents/BlockChain/OpenCoverage/contracts/Delegate.sol",
  "compiler": {
    "name": "solc",
    "version": "0.4.24+commit.e67f0147.Emscripten.clang"
  },
  "schemaVersion": "2.0.1",
  "updatedAt": "2018-10-06T21:09:48.450Z"
}