{
  "contractName": "DoctorClaims",
  "abi": [
    {
      "constant": true,
      "inputs": [],
      "name": "initialized",
      "outputs": [
        {
          "name": "",
          "type": "bool"
        }
      ],
      "payable": false,
      "stateMutability": "view",
      "type": "function"
    },
    {
      "constant": true,
      "inputs": [
        {
          "name": "",
          "type": "address"
        }
      ],
      "name": "requesterStake",
      "outputs": [
        {
          "name": "",
          "type": "uint256"
        }
      ],
      "payable": false,
      "stateMutability": "view",
      "type": "function"
    },
    {
      "constant": false,
      "inputs": [],
      "name": "renounceOwnership",
      "outputs": [],
      "payable": false,
      "stateMutability": "nonpayable",
      "type": "function"
    },
    {
      "constant": true,
      "inputs": [
        {
          "name": "",
          "type": "address"
        }
      ],
      "name": "verifierRequester",
      "outputs": [
        {
          "name": "",
          "type": "address"
        }
      ],
      "payable": false,
      "stateMutability": "view",
      "type": "function"
    },
    {
      "constant": true,
      "inputs": [],
      "name": "owner",
      "outputs": [
        {
          "name": "",
          "type": "address"
        }
      ],
      "payable": false,
      "stateMutability": "view",
      "type": "function"
    },
    {
      "constant": true,
      "inputs": [
        {
          "name": "",
          "type": "address"
        }
      ],
      "name": "verifierClaims",
      "outputs": [
        {
          "name": "",
          "type": "uint256"
        }
      ],
      "payable": false,
      "stateMutability": "view",
      "type": "function"
    },
    {
      "constant": false,
      "inputs": [
        {
          "name": "_newOwner",
          "type": "address"
        }
      ],
      "name": "transferOwnership",
      "outputs": [],
      "payable": false,
      "stateMutability": "nonpayable",
      "type": "function"
    },
    {
      "payable": true,
      "stateMutability": "payable",
      "type": "fallback"
    },
    {
      "anonymous": false,
      "inputs": [
        {
          "indexed": true,
          "name": "doctor",
          "type": "address"
        },
        {
          "indexed": false,
          "name": "reimbursement",
          "type": "uint256"
        }
      ],
      "name": "claimCreated",
      "type": "event"
    },
    {
      "anonymous": false,
      "inputs": [
        {
          "indexed": true,
          "name": "previousOwner",
          "type": "address"
        }
      ],
      "name": "OwnershipRenounced",
      "type": "event"
    },
    {
      "anonymous": false,
      "inputs": [
        {
          "indexed": true,
          "name": "previousOwner",
          "type": "address"
        },
        {
          "indexed": true,
          "name": "newOwner",
          "type": "address"
        }
      ],
      "name": "OwnershipTransferred",
      "type": "event"
    },
    {
      "constant": false,
      "inputs": [
        {
          "name": "_registry",
          "type": "address"
        },
        {
          "name": "",
          "type": "bytes32"
        }
      ],
      "name": "initializeTarget",
      "outputs": [],
      "payable": false,
      "stateMutability": "nonpayable",
      "type": "function"
    },
    {
      "constant": false,
      "inputs": [
        {
          "name": "_verifier",
          "type": "address"
        },
        {
          "name": "_patient",
          "type": "address"
        },
        {
          "name": "_reimbursement",
          "type": "uint256"
        }
      ],
      "name": "createClaim",
      "outputs": [],
      "payable": true,
      "stateMutability": "payable",
      "type": "function"
    },
    {
      "constant": false,
      "inputs": [],
      "name": "approveClaim",
      "outputs": [],
      "payable": false,
      "stateMutability": "nonpayable",
      "type": "function"
    },
    {
      "constant": false,
      "inputs": [],
      "name": "denyClaim",
      "outputs": [],
      "payable": false,
      "stateMutability": "nonpayable",
      "type": "function"
    },
    {
      "constant": true,
      "inputs": [],
      "name": "getContractBalance",
      "outputs": [
        {
          "name": "",
          "type": "uint256"
        }
      ],
      "payable": false,
      "stateMutability": "view",
      "type": "function"
    },
    {
      "constant": false,
      "inputs": [
        {
          "name": "_requester",
          "type": "address"
        },
        {
          "name": "_stake",
          "type": "uint256"
        }
      ],
      "name": "transferContractBalance",
      "outputs": [],
      "payable": false,
      "stateMutability": "nonpayable",
      "type": "function"
    }
  ],
  "bytecode": "0x608060405260008060146101000a81548160ff021916908315150217905550336000806101000a81548173ffffffffffffffffffffffffffffffffffffffff021916908373ffffffffffffffffffffffffffffffffffffffff1602179055506119408061006d6000396000f3006080604052600436106100c5576000357c0100000000000000000000000000000000000000000000000000000000900463ffffffff16806310a5a3d9146100c7578063158ef93e1461011457806328dd2e86146101435780636f9fb98a1461019a578063715018a6146101c55780637e63a4c7146101dc5780637f2c34c31461025f5780638aff0cd3146102765780638da5cb5b146102c757806392f2852c1461031e578063a0470cb41461037e578063d158673314610395578063f2fde38b146103ec575b005b3480156100d357600080fd5b50610112600480360381019080803573ffffffffffffffffffffffffffffffffffffffff1690602001909291908035906020019092919050505061042f565b005b34801561012057600080fd5b50610129610490565b604051808215151515815260200191505060405180910390f35b34801561014f57600080fd5b50610184600480360381019080803573ffffffffffffffffffffffffffffffffffffffff1690602001909291905050506104a3565b6040518082815260200191505060405180910390f35b3480156101a657600080fd5b506101af6104bb565b6040518082815260200191505060405180910390f35b3480156101d157600080fd5b506101da6104da565b005b3480156101e857600080fd5b5061021d600480360381019080803573ffffffffffffffffffffffffffffffffffffffff1690602001909291905050506105dc565b604051808273ffffffffffffffffffffffffffffffffffffffff1673ffffffffffffffffffffffffffffffffffffffff16815260200191505060405180910390f35b34801561026b57600080fd5b5061027461060f565b005b34801561028257600080fd5b506102c5600480360381019080803573ffffffffffffffffffffffffffffffffffffffff16906020019092919080356000191690602001909291905050506107db565b005b3480156102d357600080fd5b506102dc610a9c565b604051808273ffffffffffffffffffffffffffffffffffffffff1673ffffffffffffffffffffffffffffffffffffffff16815260200191505060405180910390f35b61037c600480360381019080803573ffffffffffffffffffffffffffffffffffffffff169060200190929190803573ffffffffffffffffffffffffffffffffffffffff16906020019092919080359060200190929190505050610ac1565b005b34801561038a57600080fd5b50610393611041565b005b3480156103a157600080fd5b506103d6600480360381019080803573ffffffffffffffffffffffffffffffffffffffff1690602001909291905050506114c5565b6040518082815260200191505060405180910390f35b3480156103f857600080fd5b5061042d600480360381019080803573ffffffffffffffffffffffffffffffffffffffff1690602001909291905050506114dd565b005b806104386104bb565b1015151561044557600080fd5b8173ffffffffffffffffffffffffffffffffffffffff166108fc829081150290604051600060405180830381858888f1935050505015801561048b573d6000803e3d6000fd5b505050565b600060149054906101000a900460ff1681565b60036020528060005260406000206000915090505481565b60003073ffffffffffffffffffffffffffffffffffffffff1631905090565b6000809054906101000a900473ffffffffffffffffffffffffffffffffffffffff1673ffffffffffffffffffffffffffffffffffffffff163373ffffffffffffffffffffffffffffffffffffffff1614151561053557600080fd5b6000809054906101000a900473ffffffffffffffffffffffffffffffffffffffff1673ffffffffffffffffffffffffffffffffffffffff167ff8df31144d9c2f0f6b59d69b8b98abd5459d07f2742c4df920b25aae33c6482060405160405180910390a260008060006101000a81548173ffffffffffffffffffffffffffffffffffffffff021916908373ffffffffffffffffffffffffffffffffffffffff160217905550565b60026020528060005260406000206000915054906101000a900473ffffffffffffffffffffffffffffffffffffffff1681565b600080339150600260008373ffffffffffffffffffffffffffffffffffffffff1673ffffffffffffffffffffffffffffffffffffffff16815260200190815260200160002060009054906101000a900473ffffffffffffffffffffffffffffffffffffffff1690506000600160008473ffffffffffffffffffffffffffffffffffffffff1673ffffffffffffffffffffffffffffffffffffffff16815260200190815260200160002054141580156106f45750600073ffffffffffffffffffffffffffffffffffffffff168173ffffffffffffffffffffffffffffffffffffffff1614155b151561078e576040517f08c379a00000000000000000000000000000000000000000000000000000000081526004018080602001828103825260218152602001807f566572696669657220646f6573206e6f74206861766520616e7920636c61696d81526020017f730000000000000000000000000000000000000000000000000000000000000081525060400191505060405180910390fd5b6107d782600360008473ffffffffffffffffffffffffffffffffffffffff1673ffffffffffffffffffffffffffffffffffffffff1681526020019081526020016000205461042f565b5050565b600060149054906101000a900460ff16151515610860576040517f08c379a00000000000000000000000000000000000000000000000000000000081526004018080602001828103825260178152602001807f6d757374206e6f7420626520696e697469616c697a656400000000000000000081525060200191505060405180910390fd5b600073ffffffffffffffffffffffffffffffffffffffff168273ffffffffffffffffffffffffffffffffffffffff1614151515610905576040517f08c379a00000000000000000000000000000000000000000000000000000000081526004018080602001828103825260158152602001807f7265676973747279206973206e6f7420626c616e6b000000000000000000000081525060200191505060405180910390fd5b81600460006101000a81548173ffffffffffffffffffffffffffffffffffffffff021916908373ffffffffffffffffffffffffffffffffffffffff160217905550336000806101000a81548173ffffffffffffffffffffffffffffffffffffffff021916908373ffffffffffffffffffffffffffffffffffffffff16021790555061098e611544565b506000600160008073ffffffffffffffffffffffffffffffffffffffff1673ffffffffffffffffffffffffffffffffffffffff168152602001908152602001600020819055506000600260008073ffffffffffffffffffffffffffffffffffffffff1673ffffffffffffffffffffffffffffffffffffffff16815260200190815260200160002060006101000a81548173ffffffffffffffffffffffffffffffffffffffff021916908373ffffffffffffffffffffffffffffffffffffffff1602179055506000600360008073ffffffffffffffffffffffffffffffffffffffff1673ffffffffffffffffffffffffffffffffffffffff168152602001908152602001600020819055505050565b6000809054906101000a900473ffffffffffffffffffffffffffffffffffffffff1681565b6000610b04600460009054906101000a900473ffffffffffffffffffffffffffffffffffffffff1673ffffffffffffffffffffffffffffffffffffffff166115ec565b73ffffffffffffffffffffffffffffffffffffffff1663996440c6856040518263ffffffff167c0100000000000000000000000000000000000000000000000000000000028152600401808273ffffffffffffffffffffffffffffffffffffffff1673ffffffffffffffffffffffffffffffffffffffff168152602001915050602060405180830381600087803b158015610b9e57600080fd5b505af1158015610bb2573d6000803e3d6000fd5b505050506040513d6020811015610bc857600080fd5b81019080805190602001909291905050508015610cf75750610c21600460009054906101000a900473ffffffffffffffffffffffffffffffffffffffff1673ffffffffffffffffffffffffffffffffffffffff166115ec565b73ffffffffffffffffffffffffffffffffffffffff1663996440c6336040518263ffffffff167c0100000000000000000000000000000000000000000000000000000000028152600401808273ffffffffffffffffffffffffffffffffffffffff1673ffffffffffffffffffffffffffffffffffffffff168152602001915050602060405180830381600087803b158015610cbb57600080fd5b505af1158015610ccf573d6000803e3d6000fd5b505050506040513d6020811015610ce557600080fd5b81019080805190602001909291905050505b8015610e155750610d3f600460009054906101000a900473ffffffffffffffffffffffffffffffffffffffff1673ffffffffffffffffffffffffffffffffffffffff166116dc565b73ffffffffffffffffffffffffffffffffffffffff16638f9c79ed846040518263ffffffff167c0100000000000000000000000000000000000000000000000000000000028152600401808273ffffffffffffffffffffffffffffffffffffffff1673ffffffffffffffffffffffffffffffffffffffff168152602001915050602060405180830381600087803b158015610dd957600080fd5b505af1158015610ded573d6000803e3d6000fd5b505050506040513d6020811015610e0357600080fd5b81019080805190602001909291905050505b1515610eaf576040517f08c379a000000000000000000000000000000000000000000000000000000000815260040180806020018281038252603c8152602001807f526571756573746572206f72205665726966696572206f722050617469656e7481526020017f206973206e6f74207265676973746572656420696e2073797374656d0000000081525060400191505060405180910390fd5b610ed66064610ec86002856117cc90919063ffffffff16565b61180490919063ffffffff16565b9050803410151515610ee757600080fd5b81600160008673ffffffffffffffffffffffffffffffffffffffff1673ffffffffffffffffffffffffffffffffffffffff1681526020019081526020016000208190555033600260008673ffffffffffffffffffffffffffffffffffffffff1673ffffffffffffffffffffffffffffffffffffffff16815260200190815260200160002060006101000a81548173ffffffffffffffffffffffffffffffffffffffff021916908373ffffffffffffffffffffffffffffffffffffffff16021790555080600360003373ffffffffffffffffffffffffffffffffffffffff1673ffffffffffffffffffffffffffffffffffffffff168152602001908152602001600020819055503373ffffffffffffffffffffffffffffffffffffffff167f8d43667f52659b4e4543f9ae80d0250c29f5dfce30fc62092aafed3e9ca56fcf836040518082815260200191505060405180910390a250505050565b600080600080339350600260008573ffffffffffffffffffffffffffffffffffffffff1673ffffffffffffffffffffffffffffffffffffffff16815260200190815260200160002060009054906101000a900473ffffffffffffffffffffffffffffffffffffffff1692506000600160008673ffffffffffffffffffffffffffffffffffffffff1673ffffffffffffffffffffffffffffffffffffffff16815260200190815260200160002054141580156111295750600073ffffffffffffffffffffffffffffffffffffffff168373ffffffffffffffffffffffffffffffffffffffff1614155b15156111c3576040517f08c379a00000000000000000000000000000000000000000000000000000000081526004018080602001828103825260218152602001807f566572696669657220646f6573206e6f74206861766520616e7920636c61696d81526020017f730000000000000000000000000000000000000000000000000000000000000081525060400191505060405180910390fd5b61120c83600360008673ffffffffffffffffffffffffffffffffffffffff1673ffffffffffffffffffffffffffffffffffffffff1681526020019081526020016000205461042f565b61125f6064600160008773ffffffffffffffffffffffffffffffffffffffff1673ffffffffffffffffffffffffffffffffffffffff1681526020019081526020016000205461180490919063ffffffff16565b91506112c760646112b96063600160008973ffffffffffffffffffffffffffffffffffffffff1673ffffffffffffffffffffffffffffffffffffffff168152602001908152602001600020546117cc90919063ffffffff16565b61180490919063ffffffff16565b905061130a600460009054906101000a900473ffffffffffffffffffffffffffffffffffffffff1673ffffffffffffffffffffffffffffffffffffffff166116dc565b73ffffffffffffffffffffffffffffffffffffffff166310a5a3d985846040518363ffffffff167c0100000000000000000000000000000000000000000000000000000000028152600401808373ffffffffffffffffffffffffffffffffffffffff1673ffffffffffffffffffffffffffffffffffffffff16815260200182815260200192505050600060405180830381600087803b1580156113ac57600080fd5b505af11580156113c0573d6000803e3d6000fd5b50505050611405600460009054906101000a900473ffffffffffffffffffffffffffffffffffffffff1673ffffffffffffffffffffffffffffffffffffffff166116dc565b73ffffffffffffffffffffffffffffffffffffffff166310a5a3d984836040518363ffffffff167c0100000000000000000000000000000000000000000000000000000000028152600401808373ffffffffffffffffffffffffffffffffffffffff1673ffffffffffffffffffffffffffffffffffffffff16815260200182815260200192505050600060405180830381600087803b1580156114a757600080fd5b505af11580156114bb573d6000803e3d6000fd5b5050505050505050565b60016020528060005260406000206000915090505481565b6000809054906101000a900473ffffffffffffffffffffffffffffffffffffffff1673ffffffffffffffffffffffffffffffffffffffff163373ffffffffffffffffffffffffffffffffffffffff1614151561153857600080fd5b6115418161181a565b50565b60008060149054906101000a900460ff161515156115ca576040517f08c379a00000000000000000000000000000000000000000000000000000000081526004018080602001828103825260178152602001807f6d757374206e6f7420626520696e697469616c697a656400000000000000000081525060200191505060405180910390fd5b6001600060146101000a81548160ff0219169083151502179055506001905090565b60008173ffffffffffffffffffffffffffffffffffffffff1663f39ec1f760405180807f446f63746f724d616e6167657200000000000000000000000000000000000000815250600d01905060405180910390206040518263ffffffff167c0100000000000000000000000000000000000000000000000000000000028152600401808260001916600019168152602001915050602060405180830381600087803b15801561169a57600080fd5b505af11580156116ae573d6000803e3d6000fd5b505050506040513d60208110156116c457600080fd5b81019080805190602001909291905050509050919050565b60008173ffffffffffffffffffffffffffffffffffffffff1663f39ec1f760405180807f50617469656e74506f6c69637900000000000000000000000000000000000000815250600d01905060405180910390206040518263ffffffff167c0100000000000000000000000000000000000000000000000000000000028152600401808260001916600019168152602001915050602060405180830381600087803b15801561178a57600080fd5b505af115801561179e573d6000803e3d6000fd5b505050506040513d60208110156117b457600080fd5b81019080805190602001909291905050509050919050565b6000808314156117df57600090506117fe565b81830290508183828115156117f057fe5b041415156117fa57fe5b8090505b92915050565b6000818381151561181157fe5b04905092915050565b600073ffffffffffffffffffffffffffffffffffffffff168173ffffffffffffffffffffffffffffffffffffffff161415151561185657600080fd5b8073ffffffffffffffffffffffffffffffffffffffff166000809054906101000a900473ffffffffffffffffffffffffffffffffffffffff1673ffffffffffffffffffffffffffffffffffffffff167f8be0079c531659141344cd1fd0a4f28419497f9722a3daafe3b4186f6b6457e060405160405180910390a3806000806101000a81548173ffffffffffffffffffffffffffffffffffffffff021916908373ffffffffffffffffffffffffffffffffffffffff160217905550505600a165627a7a723058206ea902df77a28c21ddfe6387b99006ca2e9d9ab444b61fc688400e8ad43107e00029",
  "source": "pragma solidity ^0.4.23;\n\nimport \"zeppelin-solidity/contracts/ownership/Ownable.sol\";\nimport 'zeppelin-solidity/contracts/math/SafeMath.sol';\nimport \"./Initializable.sol\";\nimport \"./DelegateTarget.sol\";\nimport \"./Registry.sol\";\nimport \"./RegistryLookup.sol\";\n\ncontract DoctorClaims is Ownable, Initializable, DelegateTarget {\n\n  using RegistryLookup for Registry;\n  using SafeMath for uint256;\n  /*\n    MEMORY START\n    _do not_ remove any of these once they are deployed to a network (Ropsten,\n    Mainnet, etc.) and only append to the bottom (before the END comment)\n  */\n\n  mapping (address => uint256) public verifierClaims;\n  mapping (address => address) public verifierRequester;\n  mapping (address => uint256) public requesterStake;\n  Registry registry;\n  /*\n    MEMORY END\n    It is safe to add new data definitions here\n  */\n\n  event claimCreated(address indexed doctor, uint256 reimbursement );\n\n  function () public payable {\n  }\n\n  function initializeTarget(address _registry, bytes32) public notInitialized {\n    require(_registry != address(0), 'registry is not blank');\n    registry = Registry(_registry);\n    owner = msg.sender;\n    setInitialized();\n    verifierClaims[address(0)] = 0;\n    verifierRequester[address(0)] = address(0);\n    requesterStake[address(0)] = 0;\n  }\n\n  // reimbursement 1000\n  // stake 20 - 2% is stake\n  // total 1020\n  function createClaim(address _verifier, address _patient, uint256 _reimbursement) public payable {\n      require(registry.doctorManager().isDoctor(_verifier) && registry.doctorManager().isDoctor(msg.sender) && registry.patientPolicy().isPatient(_patient), \"Requester or Verifier or Patient is not registered in system\");\n      uint256 stake = _reimbursement.mul(2).div(100);\n      require(msg.value >= stake);\n      verifierClaims[_verifier] = _reimbursement;\n      verifierRequester[_verifier] = msg.sender;\n      requesterStake[msg.sender] = stake;\n      emit claimCreated(msg.sender, _reimbursement);\n  }\n\n  function approveClaim() public {\n      address verifier = msg.sender;\n      address requester = verifierRequester[verifier];\n      require(verifierClaims[verifier] != 0 && requester != address(0), \"Verifier does not have any claims\");\n      transferContractBalance(requester, requesterStake[requester]);\n      uint256 verifierReimbursement = verifierClaims[verifier].div(100);\n      uint256 requesterReimbursement = verifierClaims[verifier].mul(99).div(100);\n      registry.patientPolicy().transferContractBalance(verifier, verifierReimbursement);\n      registry.patientPolicy().transferContractBalance(requester, requesterReimbursement);\n  }\n\n  function denyClaim() public {\n      address verifier = msg.sender;\n      address requester = verifierRequester[verifier];\n      require(verifierClaims[verifier] != 0 && requester != address(0), \"Verifier does not have any claims\");\n      transferContractBalance(verifier, requesterStake[requester]);\n   }\n\n  function getContractBalance() public view returns (uint256) {\n      return address(this).balance;\n  }\n\n  function transferContractBalance(address _requester, uint256 _stake) public {\n      require(getContractBalance() >= _stake);\n      _requester.transfer(_stake);\n\n  }\n\n\n}\n",
  "sourcePath": "/Users/bvenkatachalam/Documents/BlockChain/OpenCoverage/contracts/DoctorClaims.sol",
  "compiler": {
    "name": "solc",
    "version": "0.4.24+commit.e67f0147.Emscripten.clang"
  },
  "schemaVersion": "2.0.1",
  "updatedAt": "2018-10-07T02:41:52.118Z"
}