{
  "contractName": "Initializable",
  "abi": [
    {
      "constant": true,
      "inputs": [],
      "name": "initialized",
      "outputs": [
        {
          "name": "",
          "type": "bool"
        }
      ],
      "payable": false,
      "stateMutability": "view",
      "type": "function"
    }
  ],
  "bytecode": "0x608060405260008060006101000a81548160ff02191690831515021790555034801561002a57600080fd5b5060ae806100396000396000f300608060405260043610603f576000357c0100000000000000000000000000000000000000000000000000000000900463ffffffff168063158ef93e146044575b600080fd5b348015604f57600080fd5b5060566070565b604051808215151515815260200191505060405180910390f35b6000809054906101000a900460ff16815600a165627a7a72305820e036204e75548ad1256445a6dae3c2f53382f077188718d8a2228fd75d35bfa80029",
  "source": "pragma solidity ^0.4.23;\n\ncontract Initializable {\n  bool public initialized = false;\n\n  modifier wasInitialized {\n    require(initialized, 'must be initialized');\n    _;\n  }\n\n  modifier notInitialized {\n    require(!initialized, 'must not be initialized');\n    _;\n  }\n\n  function setInitialized() internal notInitialized returns (bool) {\n    initialized = true;\n    return true;\n  }\n}\n",
  "sourcePath": "/Users/bvenkatachalam/Documents/BlockChain/OpenCoverage/contracts/Initializable.sol",
  "compiler": {
    "name": "solc",
    "version": "0.4.24+commit.e67f0147.Emscripten.clang"
  },
  "schemaVersion": "2.0.1",
  "updatedAt": "2018-10-07T02:41:52.109Z"
}