{
  "contractName": "PatientPolicy",
  "abi": [
    {
      "constant": true,
      "inputs": [],
      "name": "initialized",
      "outputs": [
        {
          "name": "",
          "type": "bool"
        }
      ],
      "payable": false,
      "stateMutability": "view",
      "type": "function"
    },
    {
      "constant": false,
      "inputs": [],
      "name": "renounceOwnership",
      "outputs": [],
      "payable": false,
      "stateMutability": "nonpayable",
      "type": "function"
    },
    {
      "constant": true,
      "inputs": [],
      "name": "owner",
      "outputs": [
        {
          "name": "",
          "type": "address"
        }
      ],
      "payable": false,
      "stateMutability": "view",
      "type": "function"
    },
    {
      "constant": true,
      "inputs": [],
      "name": "patientCount",
      "outputs": [
        {
          "name": "",
          "type": "uint256"
        }
      ],
      "payable": false,
      "stateMutability": "view",
      "type": "function"
    },
    {
      "constant": true,
      "inputs": [
        {
          "name": "",
          "type": "uint256"
        }
      ],
      "name": "patientNames",
      "outputs": [
        {
          "name": "",
          "type": "string"
        }
      ],
      "payable": false,
      "stateMutability": "view",
      "type": "function"
    },
    {
      "constant": true,
      "inputs": [],
      "name": "policyCount",
      "outputs": [
        {
          "name": "",
          "type": "uint256"
        }
      ],
      "payable": false,
      "stateMutability": "view",
      "type": "function"
    },
    {
      "constant": false,
      "inputs": [
        {
          "name": "_newOwner",
          "type": "address"
        }
      ],
      "name": "transferOwnership",
      "outputs": [],
      "payable": false,
      "stateMutability": "nonpayable",
      "type": "function"
    },
    {
      "payable": true,
      "stateMutability": "payable",
      "type": "fallback"
    },
    {
      "anonymous": false,
      "inputs": [
        {
          "indexed": true,
          "name": "patient",
          "type": "address"
        },
        {
          "indexed": false,
          "name": "policy",
          "type": "string"
        }
      ],
      "name": "AddPatientPolicy",
      "type": "event"
    },
    {
      "anonymous": false,
      "inputs": [
        {
          "indexed": true,
          "name": "previousOwner",
          "type": "address"
        }
      ],
      "name": "OwnershipRenounced",
      "type": "event"
    },
    {
      "anonymous": false,
      "inputs": [
        {
          "indexed": true,
          "name": "previousOwner",
          "type": "address"
        },
        {
          "indexed": true,
          "name": "newOwner",
          "type": "address"
        }
      ],
      "name": "OwnershipTransferred",
      "type": "event"
    },
    {
      "constant": false,
      "inputs": [
        {
          "name": "",
          "type": "address"
        },
        {
          "name": "",
          "type": "bytes32"
        }
      ],
      "name": "initializeTarget",
      "outputs": [],
      "payable": false,
      "stateMutability": "nonpayable",
      "type": "function"
    },
    {
      "constant": false,
      "inputs": [
        {
          "name": "_name",
          "type": "string"
        },
        {
          "name": "_policy",
          "type": "string"
        }
      ],
      "name": "addPatientPolicy",
      "outputs": [],
      "payable": true,
      "stateMutability": "payable",
      "type": "function"
    },
    {
      "constant": true,
      "inputs": [
        {
          "name": "_patient",
          "type": "address"
        }
      ],
      "name": "name",
      "outputs": [
        {
          "name": "",
          "type": "string"
        }
      ],
      "payable": false,
      "stateMutability": "view",
      "type": "function"
    },
    {
      "constant": true,
      "inputs": [
        {
          "name": "_patient",
          "type": "address"
        }
      ],
      "name": "isPatient",
      "outputs": [
        {
          "name": "",
          "type": "bool"
        }
      ],
      "payable": false,
      "stateMutability": "view",
      "type": "function"
    },
    {
      "constant": true,
      "inputs": [
        {
          "name": "_policy",
          "type": "string"
        }
      ],
      "name": "isPolicy",
      "outputs": [
        {
          "name": "",
          "type": "bool"
        }
      ],
      "payable": false,
      "stateMutability": "view",
      "type": "function"
    },
    {
      "constant": true,
      "inputs": [],
      "name": "getContractBalance",
      "outputs": [
        {
          "name": "",
          "type": "uint256"
        }
      ],
      "payable": false,
      "stateMutability": "view",
      "type": "function"
    },
    {
      "constant": false,
      "inputs": [
        {
          "name": "_requester",
          "type": "address"
        },
        {
          "name": "_reimbursement",
          "type": "uint256"
        }
      ],
      "name": "transferContractBalance",
      "outputs": [],
      "payable": false,
      "stateMutability": "nonpayable",
      "type": "function"
    }
  ],
  "bytecode": "0x608060405260008060146101000a81548160ff021916908315150217905550336000806101000a81548173ffffffffffffffffffffffffffffffffffffffff021916908373ffffffffffffffffffffffffffffffffffffffff16021790555061144d8061006d6000396000f3006080604052600436106100d0576000357c0100000000000000000000000000000000000000000000000000000000900463ffffffff16806301984892146100d257806310a5a3d91461018e578063158ef93e146101db5780636f9fb98a1461020a578063715018a6146102355780638aff0cd31461024c5780638da5cb5b1461029d5780638f9c79ed146102f4578063a0303c411461034f578063a3d46b621461037a578063a8d4fe6c14610420578063de54d429146104c2578063f2fde38b146104ed578063f70e32f414610530575b005b3480156100de57600080fd5b50610113600480360381019080803573ffffffffffffffffffffffffffffffffffffffff1690602001909291905050506105b1565b6040518080602001828103825283818151815260200191508051906020019080838360005b83811015610153578082015181840152602081019050610138565b50505050905090810190601f1680156101805780820380516001836020036101000a031916815260200191505b509250505060405180910390f35b34801561019a57600080fd5b506101d9600480360381019080803573ffffffffffffffffffffffffffffffffffffffff1690602001909291908035906020019092919050505061066e565b005b3480156101e757600080fd5b506101f06106cf565b604051808215151515815260200191505060405180910390f35b34801561021657600080fd5b5061021f6106e2565b6040518082815260200191505060405180910390f35b34801561024157600080fd5b5061024a610701565b005b34801561025857600080fd5b5061029b600480360381019080803573ffffffffffffffffffffffffffffffffffffffff1690602001909291908035600019169060200190929190505050610803565b005b3480156102a957600080fd5b506102b2610a16565b604051808273ffffffffffffffffffffffffffffffffffffffff1673ffffffffffffffffffffffffffffffffffffffff16815260200191505060405180910390f35b34801561030057600080fd5b50610335600480360381019080803573ffffffffffffffffffffffffffffffffffffffff169060200190929190505050610a3b565b604051808215151515815260200191505060405180910390f35b34801561035b57600080fd5b50610364610a61565b6040518082815260200191505060405180910390f35b34801561038657600080fd5b506103a560048036038101908080359060200190929190505050610a67565b6040518080602001828103825283818151815260200191508051906020019080838360005b838110156103e55780820151818401526020810190506103ca565b50505050905090810190601f1680156104125780820380516001836020036101000a031916815260200191505b509250505060405180910390f35b6104c0600480360381019080803590602001908201803590602001908080601f0160208091040260200160405190810160405280939291908181526020018383808284378201915050505050509192919290803590602001908201803590602001908080601f0160208091040260200160405190810160405280939291908181526020018383808284378201915050505050509192919290505050610b17565b005b3480156104ce57600080fd5b506104d7610ee0565b6040518082815260200191505060405180910390f35b3480156104f957600080fd5b5061052e600480360381019080803573ffffffffffffffffffffffffffffffffffffffff169060200190929190505050610ee6565b005b34801561053c57600080fd5b50610597600480360381019080803590602001908201803590602001908080601f0160208091040260200160405190810160405280939291908181526020018383808284378201915050505050509192919290505050610f4d565b604051808215151515815260200191505060405180910390f35b6060600460006105c084610fd6565b81526020019081526020016000208054600181600116156101000203166002900480601f0160208091040260200160405190810160405280929190818152602001828054600181600116156101000203166002900480156106625780601f1061063757610100808354040283529160200191610662565b820191906000526020600020905b81548152906001019060200180831161064557829003601f168201915b50505050509050919050565b806106776106e2565b1015151561068457600080fd5b8173ffffffffffffffffffffffffffffffffffffffff166108fc829081150290604051600060405180830381858888f193505050501580156106ca573d6000803e3d6000fd5b505050565b600060149054906101000a900460ff1681565b60003073ffffffffffffffffffffffffffffffffffffffff1631905090565b6000809054906101000a900473ffffffffffffffffffffffffffffffffffffffff1673ffffffffffffffffffffffffffffffffffffffff163373ffffffffffffffffffffffffffffffffffffffff1614151561075c57600080fd5b6000809054906101000a900473ffffffffffffffffffffffffffffffffffffffff1673ffffffffffffffffffffffffffffffffffffffff167ff8df31144d9c2f0f6b59d69b8b98abd5459d07f2742c4df920b25aae33c6482060405160405180910390a260008060006101000a81548173ffffffffffffffffffffffffffffffffffffffff021916908373ffffffffffffffffffffffffffffffffffffffff160217905550565b600060149054906101000a900460ff16151515610888576040517f08c379a00000000000000000000000000000000000000000000000000000000081526004018080602001828103825260178152602001807f6d757374206e6f7420626520696e697469616c697a656400000000000000000081525060200191505060405180910390fd5b61089061113a565b50336000806101000a81548173ffffffffffffffffffffffffffffffffffffffff021916908373ffffffffffffffffffffffffffffffffffffffff160217905550600654600160008073ffffffffffffffffffffffffffffffffffffffff1673ffffffffffffffffffffffffffffffffffffffff168152602001908152602001600020819055506020604051908101604052806000815250600260008073ffffffffffffffffffffffffffffffffffffffff1673ffffffffffffffffffffffffffffffffffffffff168152602001908152602001600020908051906020019061097a92919061137c565b50600060036000600654815260200190815260200160002060006101000a81548173ffffffffffffffffffffffffffffffffffffffff021916908373ffffffffffffffffffffffffffffffffffffffff16021790555060206040519081016040528060008152506004600060065481526020019081526020016000209080519060200190610a0992919061137c565b50610a126111e2565b5050565b6000809054906101000a900473ffffffffffffffffffffffffffffffffffffffff1681565b600080610a4783610fd6565b141515610a575760019050610a5c565b600090505b919050565b60065481565b60046020528060005260406000206000915090508054600181600116156101000203166002900480601f016020809104026020016040519081016040528092919081815260200182805460018160011615610100020316600290048015610b0f5780601f10610ae457610100808354040283529160200191610b0f565b820191906000526020600020905b815481529060010190602001808311610af257829003601f168201915b505050505081565b6000339050610b2581610a3b565b158015610b375750610b3682610f4d565b5b1515610bf7576040517f08c379a000000000000000000000000000000000000000000000000000000000815260040180806020018281038252604f8152602001807f416464726573732070726f766964656420697320616c7265616479206120706181526020017f7469656e74206f7220506f6c696379206973206e6f74207265636f676e697a6581526020017f64206279207468652073797374656d000000000000000000000000000000000081525060600191505060405180910390fd5b6005826040518082805190602001908083835b602083101515610c2f5780518252602082019150602081019050602083039250610c0a565b6001836020036101000a03801982511681845116808217855250505050505090500191505090815260200160405180910390205434141515610cff576040517f08c379a00000000000000000000000000000000000000000000000000000000081526004018080602001828103825260228152602001807f50617469656e7420646964206e6f742070617920666f722074686520706f6c6981526020017f637900000000000000000000000000000000000000000000000000000000000081525060400191505060405180910390fd5b6001600660008282540192505081905550600654600160008373ffffffffffffffffffffffffffffffffffffffff1673ffffffffffffffffffffffffffffffffffffffff168152602001908152602001600020819055508060036000600654815260200190815260200160002060006101000a81548173ffffffffffffffffffffffffffffffffffffffff021916908373ffffffffffffffffffffffffffffffffffffffff160217905550826004600060065481526020019081526020016000209080519060200190610dd392919061137c565b5081600260008373ffffffffffffffffffffffffffffffffffffffff1673ffffffffffffffffffffffffffffffffffffffff1681526020019081526020016000209080519060200190610e2792919061137c565b508073ffffffffffffffffffffffffffffffffffffffff167f968cd538959268f5cf2029f48290d03d4ac97e048f5d389cbb84de99d5e4857a836040518080602001828103825283818151815260200191508051906020019080838360005b83811015610ea1578082015181840152602081019050610e86565b50505050905090810190601f168015610ece5780820380516001836020036101000a031916815260200191505b509250505060405180910390a2505050565b60075481565b6000809054906101000a900473ffffffffffffffffffffffffffffffffffffffff1673ffffffffffffffffffffffffffffffffffffffff163373ffffffffffffffffffffffffffffffffffffffff16141515610f4157600080fd5b610f4a81611282565b50565b6000806005836040518082805190602001908083835b602083101515610f885780518252602082019150602081019050602083039250610f63565b6001836020036101000a038019825116818451168082178552505050505050905001915050908152602001604051809103902054141515610fcc5760019050610fd1565b600090505b919050565b600080600073ffffffffffffffffffffffffffffffffffffffff168373ffffffffffffffffffffffffffffffffffffffff161415151561107e576040517f08c379a00000000000000000000000000000000000000000000000000000000081526004018080602001828103825260208152602001807f446f63746f7220616464726573732070726f766964656420697320626c616e6b81525060200191505060405180910390fd5b600160008473ffffffffffffffffffffffffffffffffffffffff1673ffffffffffffffffffffffffffffffffffffffff1681526020019081526020016000205490508273ffffffffffffffffffffffffffffffffffffffff166003600083815260200190815260200160002060009054906101000a900473ffffffffffffffffffffffffffffffffffffffff1673ffffffffffffffffffffffffffffffffffffffff16141561112f57809150611134565b600091505b50919050565b60008060149054906101000a900460ff161515156111c0576040517f08c379a00000000000000000000000000000000000000000000000000000000081526004018080602001828103825260178152602001807f6d757374206e6f7420626520696e697469616c697a656400000000000000000081525060200191505060405180910390fd5b6001600060146101000a81548160ff0219169083151502179055506001905090565b67016345785d8a0000600560405180807f410000000000000000000000000000000000000000000000000000000000000081525060010190509081526020016040518091039020819055506702c68af0bb140000600560405180807f420000000000000000000000000000000000000000000000000000000000000081525060010190509081526020016040518091039020819055506002600781905550565b600073ffffffffffffffffffffffffffffffffffffffff168173ffffffffffffffffffffffffffffffffffffffff16141515156112be57600080fd5b8073ffffffffffffffffffffffffffffffffffffffff166000809054906101000a900473ffffffffffffffffffffffffffffffffffffffff1673ffffffffffffffffffffffffffffffffffffffff167f8be0079c531659141344cd1fd0a4f28419497f9722a3daafe3b4186f6b6457e060405160405180910390a3806000806101000a81548173ffffffffffffffffffffffffffffffffffffffff021916908373ffffffffffffffffffffffffffffffffffffffff16021790555050565b828054600181600116156101000203166002900490600052602060002090601f016020900481019282601f106113bd57805160ff19168380011785556113eb565b828001600101855582156113eb579182015b828111156113ea5782518255916020019190600101906113cf565b5b5090506113f891906113fc565b5090565b61141e91905b8082111561141a576000816000905550600101611402565b5090565b905600a165627a7a723058203f6fa07d6215988c0c5a4714566dfe10e815d2c640d648f66a3a3cb51de02e750029",
  "source": "pragma solidity ^0.4.23;\n\nimport \"zeppelin-solidity/contracts/ownership/Ownable.sol\";\nimport \"./Initializable.sol\";\nimport \"./DelegateTarget.sol\";\n\ncontract PatientPolicy is Ownable, Initializable, DelegateTarget {\n\n  /*\n    MEMORY START\n    _do not_ remove any of these once they are deployed to a network (Ropsten,\n    Mainnet, etc.) and only append to the bottom (before the END comment)\n  */\n  mapping (address => uint256)  patientIndices;\n  mapping (address => string)  patientPolicies;\n  mapping (uint256 => address)  patientAddresses;\n  mapping (uint256 => string)  public patientNames;\n  mapping (string => uint256)  admissiblePolicies;\n\n  uint256 public patientCount;\n  uint256 public policyCount;\n  /*\n    MEMORY END\n    It is safe to add new data definitions here\n  */\n\n  event AddPatientPolicy(address indexed patient, string policy );\n\n  function () public payable {\n  }\n\n  function initializeTarget(address, bytes32) public notInitialized {\n    setInitialized();\n    owner = msg.sender;\n\n    patientIndices[address(0)] = patientCount;\n    patientPolicies[address(0)] = '';\n    patientAddresses[patientCount] = address(0);\n    patientNames[patientCount] = '';\n    setAdmissiblePolicies();\n  }\n\n  function setAdmissiblePolicies() private {\n      admissiblePolicies['A'] = 100000000000000000;\n      admissiblePolicies['B'] = 200000000000000000;\n      policyCount = 2;\n  }\n\n  function addPatientPolicy(\n    string _name,\n    string _policy\n  ) public payable {\n    address _patient = msg.sender;\n    require(!isPatient(_patient) && isPolicy(_policy), \"Address provided is already a patient or Policy is not recognized by the system\");\n    require (msg.value == admissiblePolicies[_policy], \"Patient did not pay for the policy\");\n    patientCount += 1;\n    patientIndices[_patient] = patientCount;\n    patientAddresses[patientCount] = _patient;\n    patientNames[patientCount] = _name;\n    patientPolicies[_patient] = _policy;\n    emit AddPatientPolicy(_patient, _policy);\n  }\n\n  function patientIndex(address _patient) private view returns (uint256) {\n    require(_patient != address(0), \"Doctor address provided is blank\");\n    uint256 index = patientIndices[_patient];\n    if (patientAddresses[index] == _patient) {\n      return index;\n    } else {\n      return 0;\n    }\n  }\n\n  function getPatientPolicy(address _patient) private view returns (string) {\n    require(_patient != address(0) && patientIndex(_patient) != 0, \"Doctor address provided is blank\");\n    return patientPolicies[_patient];\n  }\n\n  function name(address _patient) public view returns (string) {\n    return patientNames[patientIndex(_patient)];\n  }\n\n  function isPatient(address _patient) public view returns (bool) {\n    if (patientIndex(_patient) != 0) {\n        return true;\n    }\n    return false;\n  }\n\n  function isPolicy(string _policy) public view returns (bool) {\n    if (admissiblePolicies[_policy] != 0) {\n        return true;\n    }\n    return false;\n  }\n\n  function getContractBalance() public view returns (uint256) {\n      return address(this).balance;\n  }\n\n  function transferContractBalance(address _requester, uint256 _reimbursement) public {\n      require(getContractBalance() >= _reimbursement);\n      _requester.transfer(_reimbursement);\n  }\n\n\n}\n",
  "sourcePath": "/Users/bvenkatachalam/Documents/BlockChain/OpenCoverage/contracts/PatientPolicy.sol",
  "compiler": {
    "name": "solc",
    "version": "0.4.24+commit.e67f0147.Emscripten.clang"
  },
  "schemaVersion": "2.0.1",
  "updatedAt": "2018-10-07T02:41:52.124Z"
}